:020000040000fa
:080000000002040000000000f2
:020000040000fa
:04000800c80200002a
:020000040000fa
:04000c00c802000026
:020000040000fa
:04001000c802000022
:020000040000fa
:04001400c80200001e
:020000040000fa
:04001800c80200001a
:020000040000fa
:04001c00c802000016
:020000040000fa
:04002000c802000012
:020000040000fa
:04002400c80200000e
:020000040000fa
:04002800c80200000a
:020000040000fa
:04002c00c802000006
:020000040000fa
:04003000c802000002
:020000040000fa
:04003400c8020000fe
:020000040000fa
:04003800c8020000fa
:020000040000fa
:04003c00c8020000f6
:020000040000fa
:04004000c8020000f2
:020000040000fa
:04004400c8020000ee
:020000040000fa
:04004800c8020000ea
:020000040000fa
:04004c00c8020000e6
:020000040000fa
:04005000c8020000e2
:020000040000fa
:04005400c8020000de
:020000040000fa
:04005800c8020000da
:020000040000fa
:04005c00c8020000d6
:020000040000fa
:04006000c8020000d2
:020000040000fa
:04006400c8020000ce
:020000040000fa
:04006800c8020000ca
:020000040000fa
:04006c00c8020000c6
:020000040000fa
:04007000c8020000c2
:020000040000fa
:04007400c8020000be
:020000040000fa
:04007800c8020000ba
:020000040000fa
:04007c00c8020000b6
:020000040000fa
:04008000c8020000b2
:020000040000fa
:04008400c8020000ae
:020000040000fa
:04008800c8020000aa
:020000040000fa
:04008c00c8020000a6
:020000040000fa
:04009000c8020000a2
:020000040000fa
:04009400c80200009e
:020000040000fa
:04009800c80200009a
:020000040000fa
:04009c00c802000096
:020000040000fa
:0400a000c802000092
:020000040000fa
:0400a400c80200008e
:020000040000fa
:0400a800c80200008a
:020000040000fa
:0400ac00c802000086
:020000040000fa
:0400b000c802000082
:020000040000fa
:0400b400c80200007e
:020000040000fa
:0400b800c80200007a
:020000040000fa
:0400bc00c802000076
:020000040000fa
:0400c000c802000072
:020000040000fa
:0400c400c80200006e
:020000040000fa
:0400c800c80200006a
:020000040000fa
:0400cc00c802000066
:020000040000fa
:0400d000c802000062
:020000040000fa
:0400d400c80200005e
:020000040000fa
:0400d800c80200005a
:020000040000fa
:0400dc00c802000056
:020000040000fa
:0400e000c802000052
:020000040000fa
:0400e400c80200004e
:020000040000fa
:0400e800c80200004a
:020000040000fa
:0400ec00c802000046
:020000040000fa
:0400f000c802000042
:020000040000fa
:0400f400c80200003e
:020000040000fa
:0400f800c80200003a
:020000040000fa
:0400fc00c802000036
:020000040000fa
:04010000c802000031
:020000040000fa
:04010400c80200002d
:020000040000fa
:04010800c802000029
:020000040000fa
:04010c00c802000025
:020000040000fa
:04011000c802000021
:020000040000fa
:04011400c80200001d
:020000040000fa
:04011800c802000019
:020000040000fa
:04011c00c802000015
:020000040000fa
:04012000c802000011
:020000040000fa
:04012400c80200000d
:020000040000fa
:04012800c802000009
:020000040000fa
:04012c00c802000005
:020000040000fa
:04013000c802000001
:020000040000fa
:04013400c8020000fd
:020000040000fa
:04020800c802000028
:020000040000fa
:04020c00c802000024
:020000040000fa
:04021000c802000020
:020000040000fa
:04021400c80200001c
:020000040000fa
:04021800c802000018
:020000040000fa
:04021c00c802000014
:020000040000fa
:04022000c802000010
:020000040000fa
:04022400c80200000c
:020000040000fa
:04022800c802000008
:020000040000fa
:04022c00c802000004
:020000040000fa
:04023000c802000000
:020000040000fa
:04023400c8020000fc
:020000040000fa
:04023800c8020000f8
:020000040000fa
:04023c00c8020000f4
:020000040000fa
:04024000c8020000f0
:020000040000fa
:04024400c8020000ec
:020000040000fa
:04024800c8020000e8
:020000040000fa
:04024c00c8020000e4
:020000040000fa
:04025000c8020000e0
:020000040000fa
:04025400c8020000dc
:020000040000fa
:04025800c8020000d8
:020000040000fa
:04025c00c8020000d4
:020000040000fa
:04026000c8020000d0
:020000040000fa
:04026400c8020000cc
:020000040000fa
:04026800c8020000c8
:020000040000fa
:04026c00c8020000c4
:020000040000fa
:04027000c8020000c0
:020000040000fa
:04027400c8020000bc
:020000040000fa
:04027800c8020000b8
:020000040000fa
:04027c00c8020000b4
:020000040000fa
:04028000c8020000b0
:020000040000fa
:04028400c8020000ac
:020000040000fa
:04028800c8020000a8
:020000040000fa
:04028c00c8020000a4
:020000040000fa
:04029000c8020000a0
:020000040000fa
:04029400c80200009c
:020000040000fa
:04029800c802000098
:020000040000fa
:04029c00c802000094
:020000040000fa
:0402a000c802000090
:020000040000fa
:0402a400c80200008c
:020000040000fa
:0402a800c802000088
:020000040000fa
:0402ac00c802000084
:020000040000fa
:0402b000c802000080
:020000040000fa
:0402b400c80200007c
:020000040000fa
:0402b800c802000078
:020000040000fa
:0402bc00c802000074
:020000040000fa
:0402c000c802000070
:020000040000fa
:0402c400c80200006c
:020000040000fa
:0402c800c802000068
:020000040000fa
:0402cc00c802000064
:020000040000fa
:0402d000c802000060
:020000040000fa
:0402d400c80200005c
:020000040000fa
:0402d800c802000058
:020000040000fa
:0402dc00c802000054
:020000040000fa
:0402e000c802000050
:020000040000fa
:0402e400c80200004c
:020000040000fa
:0402e800c802000048
:020000040000fa
:0402ec00c802000044
:020000040000fa
:0402f000c802000040
:020000040000fa
:0402f400c80200003c
:020000040000fa
:0402f800c802000038
:020000040000fa
:0402fc00c802000034
:020000040000fa
:04030000c80200002f
:020000040000fa
:04030400c80200002b
:020000040000fa
:04030800c802000027
:020000040000fa
:04030c00c802000023
:020000040000fa
:04031000c80200001f
:020000040000fa
:04031400c80200001b
:020000040000fa
:04031800c802000017
:020000040000fa
:04031c00c802000013
:020000040000fa
:04032000c80200000f
:020000040000fa
:04032400c80200000b
:020000040000fa
:04032800c802000007
:020000040000fa
:04032c00c802000003
:020000040000fa
:04033000c8020000ff
:020000040000fa
:04033400c8020000fb
:020000040000fa
:10040000cf8020000e7f22000e0188000000000037
:10041000000020000000e000020032000001200087
:1004200020028800140007005b0007000000e000c5
:1004300003003a0000eb200001002000020037001a
:100440000000200001002000810f70000100320038
:1004500014000700000020000000e000020032004d
:1004600000000200000000005c0302000000000029
:100470000040da000000fe004440a9008006200091
:100480000000e0000300320000002000a00188000e
:100490004440a800000006008a1f78008b1f7800e7
:1004a0000000060091018800800478000000eb0045
:1004b0001a003700e284440032a0b4009905ba0063
:1004c000e284440032a0b4009906ba00e2844400f9
:1004d00032a0b4000006eb00476fde00fd07b2005b
:1004e000636ce10003003a00ebff07000000eb0043
:1004f0000a003700606ce10004003a00005deb0088
:100500008b05e900fdff3e00040037006168e10053
:10051000010032000086eb000b00070019c7ba008b
:100520001905ba000e04e00003003a000a00e000da
:10053000e0ff3a0000000600fe07b2009e018800be
:100540008a047800f5ff3700395dba008b05e900b1
:100550000c003200295dba008b05e900080032006a
:100560000c00e00003003a00e284440032a0b40032
:10057000f5ff370019ddba008b05e900faff3a00f4
:100580008904e800e184440032a0b40000000600c1
:100590000040da000000fe00000005006022b80004
:1005a000060220000000d0008180d2000482d20028
:1005b0008582d2000000a0000202520083825a000d
:1005c000030031000202420083824a000000a100c1
:1005d0000603e900f3ff3a0000000600efff070002
:0805e0000400be00000006004b
:020000040000fa
:1005e8004e4800004945000054200000444f0000d8
:1005f8003a000000444f0000204100004d3a00003e
:100608000053000065740000746900006e67000004
:10061800204800006d610000783d00000053000094
:1006280065740000746900006e67000020540000c3
:100638006d610000783d000000460000414e00005a
:10064800204f00004e3a0000004c0000414d0000d1
:10065800502000004f4e00003a0000005365000093
:1006680074740000696e000067200000546d00007b
:100678006178000000530000657400007469000090
:100688006e670000204800006d61000078000000df
:1006980043680000656300006b200000696e00007d
:1006a800666f0000004500007869000074000000d3
:020000040000fa
:1006b8000400fa00000f780011079800dc04070016
:1006c800d802a800d822a800d842a800e442a8006e
:1006d800e462a800e4c2a800e4e2a800d882a90065
:1006e800d8a2a900da82a800daa2a8001a04070092
:1006f800200320008605070010040700422f280069
:1007080011c0b30010c0b3007004070004c8bf00d4
:100718008080fb00d0cc2c000008b8004308de0025
:10072800004078000043b00000417800b1c0b30039
:1007380010c0b3005a04070004c8bf000081fb00c2
:10074800d0cc2c000010b8004308de006a00b900c5
:100758000000780000005100004078000043b0001d
:1007680000417800c1c0b30010c0b3004c040700ba
:10077800f2cdb300d1c0b30010c0b30048040700e5
:1007880032c6b300e1c0b30010c0b3004404070090
:10079800e22f280011c0b30020c0b3004b040700ab
:1007a80005c8bf008080fb00d0cc2c000008b80032
:1007b8004308de00004078000043b00000417800a4
:1007c80081c0b30020c0b3003504070005c8bf00ce
:1007d8000081fb00d0cc2c000010b8004308de00dc
:1007e8006a00b9000000780000005100004078005d
:1007f8000043b0000041780091c0b30020c0b300ae
:100808002704070052c2b300a1c0b30020c0b30040
:1008180023040700d0168000620060000000e0009a
:1008280001003200ea010700d01680006100600074
:100838000000e00013003200d01680007000600055
:1008480000f0a7000000ea000000e9004f00de0009
:10085800004078000080fb00610060004400dd007b
:10086800d11680000140a10001007000d016880058
:1008780000000000d0168000610060000000e00069
:10088800fcff3a00d0168000640060000000e00021
:1008980014003200d11680000002200000806000a1
:1008a80000f0a7000000ea000000e9004f00de00a9
:1008b800004078000080fb00610060004500dd001a
:1008c800d11680000150a10001007000d0168800e8
:1008d80000000000d0168000640060000000e00006
:1008e800fcff3a00f0c1b3005b0407000ae8b70058
:1008f8000ac8bf000004e000020032000ac8bf00b6
:1009080004e8b700a000200001050700f0c3b30009
:10091800510407000ae8b700a0002000fc04070003
:10092800f0c3b3004c0407000ae8b7000ac8bf00c8
:100938000004e000020032000ac8bf0005e8b70062
:10094800c0122000f20407006cff37000200fa0012
:1009580000000000d0168000620060000000e00087
:10096800fcff3a00a0c0b300104798009e409000da
:10097800014f7800710307005230280011c0b300fe
:1009880010c0b300d103070052c2b30001c1b300c5
:1009980010c0b300c20307001e01fb0070662600ea
:1009a8000090b900c288de004f90de000080500041
:1009b800004078000043b00000417800e1c0b30077
:1009c80010c0b300b60307001e00fb0071662600c6
:1009d8000181b9004299de00cf80de00810051001c
:1009e8006a09b900820078000100500000407800d0
:1009f8000043b00000417800f1c0b30010c0b3005c
:100a0800a7030700010037000000000030c6b3004c
:100a18009e40780080cf50000200340030c6b300fa
:100a2800004f78001e4090009e40780080cf500014
:100a38001d0032001e01fb00706626000090b90000
:100a4800c288de004f90de00008050000040780031
:100a58000043b00000417800e1c0b30010c0b3000b
:100a68008f0307001e00fb00716626000181b90094
:100a78004299de00cf80de00810051006a09b9008a
:100a88008200780001005000004078000043b00068
:100a980000417800f1c0b30010c0b3008003070024
:100aa8009e40780011479800d016800061006000d1
:100ab8000000e0000b00320020c6b3009e40780022
:100ac80080cf500002003c001e4fe80002003700b3
:100ad80010c0b300004f7800400620008c040700c7
:100ae800caff3700d0168000640060000000e000f4
:100af8000a0032001e407800e14f50000200340026
:100b08001e4fe9000200370010c0b300004f780004
:100b1800400620007e040700bcff3700d016800086
:100b2800620060000000e000b7ff320050c0b30070
:100b3800004f78000040eb001047980000000000cc
:100b4800d0168000620060000000e000fcff3a0060
:100b58000080fa00000006000200fa000000000011
:100b6800d0168000620060000000e000fcff3a0040
:100b780080c2b300104798009e409000014f780053
:100b8800ee0207003231280011c0b30010c0b300d4
:100b98004e03070032c6b30001c1b30010c0b30052
:100ba8003f0307001e01fb00706626000090b90095
:100bb800c288de004f90de000080500000407800c0
:100bc8000043b00000417800e1c0b30010c0b3009a
:100bd800330307001e00fb00716626000181b9007f
:100be8004299de00cf80de00810051006a09b90019
:100bf8008200780001005000004078000043b000f7
:100c080000417800f1c0b30010c0b300240307000e
:100c1800010037000000000030c6b3009e40780095
:100c280080cf50000200340030c6b300004f780077
:100c38001e4090009e40780080cf50001d0032007a
:100c48001e01fb00706626000090b900c288de0015
:100c58004f90de0000805000004078000043b00054
:100c680000417800e1c0b30010c0b3000c030700d6
:100c78001e00fb00716626000181b9004299de0062
:100c8800cf80de00810051006a09b9008200780037
:100c980001005000004078000043b0000041780097
:100ca800f1c0b30010c0b300fd0207009e407800f9
:100cb80011479800d0168000610060000000e00035
:100cc8000b00320020c6b3009e40780080cf500051
:100cd80002003c001e4fe8000200370010c0b300bd
:100ce800004f78004006200009040700caff3700bb
:100cf800d0168000640060000000e0000a003200a6
:100d08001e407800e14f5000020034001e4fe900f9
:100d18000200370010c0b300004f780040062000e2
:100d2800fb030700bcff3700d0168000620060009c
:100d38000000e000b7ff320050c0b300004f780059
:100d48000040eb001047980000000000d01680001b
:100d5800620060000000e000fcff3a000080fa003a
:100d6800000006000000fa0000000000d016800015
:100d7800620060000000e000fcff3a006f0207001c
:100d88001232280011c0b30010c0b300cf02070010
:100d98009232280011c0b30020c0b300cb02070074
:100da800010037000000000030408000c300de0072
:100db800500c22000008b8004409de00d0cc2c00fa
:100dc8000010b8004308de006a00b900000078008f
:100dd80000005100004078000043b0000041780056
:100de800a1c0b30010c0b300ad02070030408000be
:100df800c200de00b04721000008b8000101d100a0
:100e0800d0cc2c000010b8004308de006a00b900fe
:100e18000000780000005100004078000043b00056
:100e280000417800b1c0b30010c0b3009c020700b5
:100e380031408000d0cc2c000008b8004309de0007
:100e4800d0cc2c000010b8004308de006a00b900be
:100e58000000780000005100004078000043b00016
:100e680000417800c1c0b30010c0b3008c02070075
:100e780032408000d0cc2c000010b8004308de00bf
:100e88006a00b900000078000000510000407800b6
:100e98000043b00000417800d1c0b30010c0b300d7
:100ea8007f02070040408000c300de00500c220093
:100eb8000008b8004409de00d0cc2c000010b800af
:100ec8004308de006a00b900000078000000510005
:100ed800004078000043b00000417800a1c0b30092
:100ee80020c0b3006e02070040408000c200de0050
:100ef800b04721000008b8000101d100d0cc2c0077
:100f08000010b8004308de006a00b900000078004d
:100f180000005100004078000043b0000041780014
:100f2800b1c0b30020c0b3005d020700414080009b
:100f3800d0cc2c000008b8004309de00d0cc2c002f
:100f48000010b8004308de006a00b900000078000d
:100f580000005100004078000043b00000417800d4
:100f6800c1c0b30020c0b3004d020700424080005a
:100f7800d0cc2c000010b8004308de006a00b9008d
:100f88000000780000005100004078000043b000e5
:100f980000417800d1c0b30020c0b3004002070070
:100fa800d0168000620060000000e0007dff320083
:100fb80000000000d0168000620060000000e00021
:100fc800fcff3a00dd0107000080fa00000006007f
:100fd8000400fa000040eb00004f7800d70107003a
:100fe80040c0b300104798001e4090000080fb00ee
:100ff8000000e9004f00de0020479800e2c7b30078
:1010080011c0b30010c0b300250207002233280026
:1010180021c0b30010c0b3002c020700f23328002f
:1010280021c0b30020c0b300280207000000000060
:10103800d0168000620060000000e000fcff3a006b
:101048000100370000000000d01680006100600039
:101058000000e0000e0032001e409000e34f5000f8
:1010680004003c001e4090000040e8001047980033
:101078000300370010c0b3001047980000000000bc
:10108800d0168000610060000000e000fcff3a001c
:10109800d0168000640060000000e0000e003200fe
:1010a8001e409000e14f5000040034001e409000a4
:1010b8000040e900104798000300370040c0b30023
:1010c8001047980000000000d016800064006000ff
:1010d8000000e000fcff3a009e4090002e40900087
:1010e80080cf500054003200940107009e409000c9
:1010f800214798001e4090000000fb00e20f5000be
:101108002b003200e20f500003003c00e10f5000ba
:101118003800320048003700e30f50001300320057
:10112800e40f500044003a00e2c7b30011c0b30016
:1011380010c0b300da01070002c2b30011c0b30047
:1011480020c0b300d60107002233280021c0b30015
:1011580010c0b300dd010700f233280021c0b3003e
:1011680020c0b300d90107003300370002c2b30022
:1011780011c0b30010c0b300c9010700e2c7b30033
:1011880011c0b30020c0b300c501070022332800f6
:1011980021c0b30010c0b300cc010700f23328000f
:1011a80021c0b30020c0b300c801070022003700e7
:1011b800e2c7b30011c0b30010c0b300b801070004
:1011c80002c2b30011c0b30020c0b300b4010700cd
:1011d800c234280021c0b30010c0b300bb0107000f
:1011e8007235280021c0b30020c0b300b701070042
:1011f8001100370002c2b30011c0b30010c0b30021
:10120800a7010700e2c7b30011c0b30020c0b300b4
:10121800a3010700c234280021c0b30010c0b300e6
:10122800aa0107007235280021c0b30020c0b3000e
:10123800a601070000000000d016800062006000d0
:101248000000e000220032001e4090000000fb0079
:10125800e20f500015003200e20f500003003c007e
:10126800e10f50001700320019003700e30f50005b
:1012780008003200e40f500015003a0036fe07005f
:1012880040c0b300104798001e4090001c000700a3
:101298000f003700adfd070030c0b30010479800bd
:1012a8001e4090001600070009003700adfe070039
:1012b80020c0b300104798001e409000100007009f
:1012c8000300370010c0b300004f78000000000092
:1012d8001e4078000004e0005aff320000000000c1
:1012e800d0168000620060000000e000fcff3a00b9
:1012f800120107000040eb000080fa000000060021
:101308000200fa00004f78000c0107001e40780028
:10131800e44f5000030032001e407800e34f5000b5
:1013280009003a002233280021c0b30010c0b300de
:1013380066010700f233280021c0b30020c0b300c3
:10134800620107000e0037001e407800e24f50008f
:10135800030032001e407800e14f500008003a00b8
:10136800c234280021c0b30010c0b30057010700e1
:101378007235280021c0b30020c0b3005301070014
:101388001e00fb00e20f500013003200e20f500075
:1013980003003c00e10f5000140032001800370031
:1013a800e30f500007003200e40f500014003a0029
:1013b800e2c7b30011c0b30010c0b3003801070082
:1013c80014003700e2c7b30011c0b30020c0b30057
:1013d800330107000f003700e2c7b30011c0b300a4
:1013e80010c0b3002e0107000a003700e2c7b3009f
:1013f80011c0b30020c0b300290107000500370061
:10140800e2c7b30011c0b30010c0b3002401070045
:10141800000000000080fa00000006000200fa0048
:10142800000f7800610037001e0fe90030178000b8
:10143800640060000000e0001300320000c8bf0034
:101448000080fb000000e9004f00de00004078004b
:1014580000e8b70000c8bf000004e0000400320044
:101468000bc8bf000004a0000be8b700030037005a
:101478000bc8bf000004a1000be8b7000bc8bf00f1
:10148800750107004d0037003017800068006000c4
:101498000000e0001300320001c8bf000080fb001c
:1014a8000000e9004f00de000040780001e8b700c6
:1014b80001c8bf000004e000040032000bc8bf00f0
:1014c8000014a0000be8b700030037000bc8bf00ea
:1014d8000014a1000be8b7000bc8bf005e010700ad
:1014e80036003700311780000004200000806000bb
:1014f8000000e0001300320002c8bf000080fb00bb
:101508000000e9004f00de000040780002e8b70064
:1015180002c8bf000004e000040032000bc8bf008e
:101528000024a0000be8b700030037000bc8bf0079
:101538000024a1000be8b7000bc8bf004601070054
:101548001e0037003117800000082000008060006e
:101558000000e0001300320003c8bf000080fb0059
:101568000000e9004f00de000040780003e8b70003
:1015780003c8bf000004e000040032000bc8bf002d
:101588000034a0000be8b700030037000bc8bf0009
:101598000034a1000be8b7000bc8bf002e010700fc
:1015a8000600370010002000d90107001e0078004f
:1015b8000000e0009cff3a00010037000000000036
:1015c80030178000640060000000e000fcff3a0073
:1015d80030178000680060000000e000f8ff3a0063
:1015e8003117800000042000008060000000e00047
:1015f800f3ff3a00311780000008200000806000e7
:101608000000e000eeff3a000080fa00000006004b
:101618000000fa00d6a2a80040012000af01070090
:10162800d6a2a90040012000ac0107000080fa0002
:10163800000006000200fa00004f78009e40780083
:1016480061c0600061406000614060000080fb0094
:10165800610060004600dd00b11680000160a10055
:1016680001007000b01688001e80fb000000d10049
:1016780000407800614060006140600061406000a7
:101688000080fb00610060004700dd00b1168000ab
:101698000170a10001007000b01688001e80fb00d8
:1016a8004200de0000407800614060006140600058
:1016b800614060000080fb00610060004800dd00c0
:1016c800b11680000180a10001007000b0168800ea
:1016d8001e80fb004300de0000407800614060008f
:1016e80061406000614060000080fb0061006000b4
:1016f8004900dd00b11680000190a10001007000d2
:10170800b01688000080fa00000006000200fa0007
:10171800004f78001e80fb004400de000040780087
:10172800c4ff0700baff07001e407800c1ff07008a
:10173800b7ff07000080fa00000006000000fa006a
:1017480010c0b300f1ff070040012000630107004b
:101758000080fa00000006000000fa00d282a9000a
:10176800d2a2a900d2c2a900d2e2a900d302a9003c
:10177800d322a9000040eb00aeff07004001200083
:1017880063010700d682a90030c0b300a9ff070093
:101798009fff0700a00020005d0107009cff0700d5
:1017a800400620004d01070099ff070020c0b30044
:1017b800a0ff070096ff070080c2b300d3ff070011
:1017c800c0c0b300d1ff070060c0b300cfff07005f
:1017d80010c0b300cdff07000080fa00000006002b
:1017e8000400fa0020479800314798003e409000d6
:1017f8000040e900304798002e4090000040e90082
:10180800204798002e4090000004e00004003a00b1
:10181800be40900000c8b30000cf4000030037006e
:10182800be40900000ccb30000cf40002000200054
:10183800370107001e407800b4ff0700e0012000d0
:10184800260107000080fa00000006000200fa00e6
:10185800004f7800d682a8001e407800abff070032
:10186800d682a9000080fa00000006000200fa00f3
:10187800000f7800040037001e0078001040780040
:10188800f2ff07001e0fe8001e00780010407800e5
:101898000004e000f8ff3a000080fa0000000600ab
:1018a8000400fa00004f780011479800224798007a
:1018b8009e4090001e407800c9ff07002e4090000f
:1018c800e2ff07000080fa00000006000400fa00aa
:1018d800004f780011479800120798009e4090002a
:1018e8001e407800beff07001e009000dfff0700c3
:1018f8000080fa00000006001c00fa00881f78002b
:101908006057980071579800420f9800530f98003d
:101918000040eb00004f78000040eb0010479800b3
:101928004e099000de0990001207980023079800de
:101938004e089000de089000e00f5000e08f58003d
:1019480006003a001e009000ae009000e00f500024
:10195800e08f580016003a002c0037001e40900017
:101968000084fb004e089000de089000a2002000d2
:101978000300200017fb070080407800080047009c
:10198800614098004e089000de089000a2002000f8
:1019980003002000fffa0700400f9800510f98003d
:1019a8001e4090000040e80010479800e0ff370014
:1019b8001e4090000040e900104798001e4090002b
:1019c8000080fb00000047006040900003c3b300a4
:1019d800834040007e5090001e4040000141780046
:1019e800804078006e509000adff07001e4fe80061
:1019f8001e4090000004e0000a0032001e409000e3
:101a08000040e90010479800ecff37007e50900036
:101a18001e40400002c3b300804078006e50900022
:101a28009fff07004f0478000080fa0000000600be
:101a38000000fa00c602a900c622a800c642a900f2
:101a4800c662a900ca62a800ca42a900ca02a900bf
:101a58000080fa00000006000600fa0040479800df
:101a68000040eb00104798000040eb00204798002a
:101a7800ca62a90010002000a50007000040eb0082
:101a8800004f78001a003700ca42a8001000200052
:101a98009f0007004e4090008080fb001e00fb0066
:101aa800020820000090de000080600000f0a7001f
:101ab8000000ea000000ea004f00de000040780065
:101ac8000080fb0061006000511680000100a10049
:101ad8000100700050168800100020008c000700dc
:101ae800ca42a90010002000890007001e4fe80024
:101af8001e407800e74f5000e3ff340050002000fc
:101b0800830007000040eb00004f78001700370003
:101b1800ca42a800100020007d000700401680007f
:101b28006200600000f0a7000000ea000000ea0080
:101b38004f00de00204798001e4090000040400003
:101b4800104798009e4090002e40900000c0700002
:101b580010479800100020006d000700ca42a90035
:101b6800100020006a0007001e4fe8001e407800a1
:101b7800e74f5000e6ff3400ca62a800ca42a90035
:101b8800ca02a9001e4090000080fa00000006006a
:101b98000000fa00c622a900ca22a90040012000bc
:101ba8005b000700ca22a8000080fa0000000600b7
:101bb8000000fa00c622a8000000000040168000bd
:101bc800620060000000e000fcff3a000000000036
:101bd80040168000620060000000e000fcff320058
:101be8000000000040168000620060000000e00075
:101bf800fcff3a000080fa00000006000400fa002a
:101c08000000eb0010079800c622a8000000eb00b7
:101c1800000f78001900370000000000401680000f
:101c2800620060000000e000fcff3200f0002000cd
:101c38002a00070040168000620060000000e000f3
:101c4800050032001e009000000040000000a000c7
:101c580010079800040037001e00900000004000a4
:101c68001007980000000000401680006200600025
:101c78000000e000fcff3a001e0fe8001e0078009c
:101c8800e70f5000e4ff34001e0090000080fa00c7
:101c9800000006000400fa00000f78001107980001
:101ca800bbff0700c2ff0700d4ff07008040780091
:101cb8001e00900001487800d0ff0700cfff070002
:101cc800804078001e00780001487800cbff0700ac
:101cd800caff07000080fa00000006000600fa00ac
:101ce80020079800ae009000f0ff20000080400020
:101cf8004400dd008000eb00008fbe001e0078006d
:101d080000800900000000000080fa0000000600c2
:101d18000400fa001007980040002000000f780027
:101d2800a00f2000edff07001e0fe9001e0078003d
:101d38000000e000faff3a001e0090000000e900f1
:101d4800100798001e0090000000e000f2ff3a0023
:081d58000080fa000000060003
:020000040000fa
:101d6000000800000c00000000000000000000005f
:020000040000fa
:020000040002f8
:04aff800bff900009d
:00000001FF
